:020000040800F2
:10000000F0100020010100084D240008331F0008F3
:1000100095230008C3010008F34500080000000014
:10002000000000000000000000000000F92D0008A2
:100030004902000800000000F5270008FB2D000819
:100040001B0100081B0100081B0100081B01000820
:100050001B0100081B0100081B0100084B020008DF
:100060001B0100081B0100081B0100081B01000800
:100070001B0100081B0100081B0100081B010008F0
:100080001B0100081B0100081B0100081B010008E0
:100090007D4500081B0100081B0100081B0100082A
:1000A0001B0100081B0100081B0100081B010008C0
:1000B0001B010008792E00081B0100081B01000825
:1000C0001B0100081B0100081B0100081B010008A0
:1000D0001B0100081B0100081B0100081B01000890
:1000E0001B0100081B0100081B010008DFF80CD0F1
:1000F00000F02AF80048004715470008F0100020DB
:100100000648804706480047FEE7FEE7FEE7FEE7B1
:10011000FEE7FEE7FEE7FEE7FEE7FEE7752E0008D6
:10012000ED000008D2B201E000F8012B491EFBD21D
:1001300070470022F6E710B513460A4604461946F2
:10014000FFF7F0FF204610BD064C074D06E0E068C3
:1001500040F0010394E8070098471034AC42F6D30E
:10016000FFF7C8FFB0480008D048000870B58C18E9
:1001700010F8015B15F0070301D110F8013B2A11BB
:1001800006D110F8012B03E010F8016B01F8016BA8
:100190005B1EF9D12B0705D40023521E0DD401F8A4
:1001A000013BFAE710F8013BCB1A921C03E013F86D
:1001B000015B01F8015B521EF9D5A142D8D30020A2
:1001C00070BDFEE730B590F840500124AC40C56BDF
:1001D0006C60046863604368102B036803D0996007
:1001E0000068C26030BD9A600068C16030BD000028
:1001F00070B5144E044600221021304600F07FF9FD
:10020000012004F039FA00215C2004F01BFB3225A8
:10021000B4FBF5F0C1B2482004F014FBB4FBF5F0D8
:10022000010A492004F00EFB0121472004F00AFBDB
:1002300001221021304600F062F9BDE87040042030
:1002400004F01ABA000801407047022000F04EB8CE
:1002500072B6FEE770B5044690F82000002501282C
:100260000CD0012084F8200094F821600020012E99
:1002700006D084F820000225284670BD022070BDFB
:10028000022684F82160A0632068066826F0010633
:1002900006602046FFF796FFE06A002820680168A4
:1002A00002D041F00E0106E021F004010160206857
:1002B000016841F00A0101602068016841F0010114
:1002C0000160D9E770B5044600F01EF90546601CD0
:1002D00002D004480078044400F016F9401BA04204
:1002E000FAD370BD9C00002070470000044910B58F
:1002F0000A68024202D00860FFF7F6FF10BD000056
:10030000140401402DE9F84FDFF8B8910024A9F159
:10031000040B23460F2709F1040AABF1040EC9E0D0
:100320000125A5402A40AA427DD1674ED1F804C0DC
:10033000ACEB0608B44532D014DCBCF1030F3AD064
:1003400009DCBCF1000F2AD0BCF1010F1CD0BCF1BC
:10035000020F31D11DE0BCF1110F17D0BCF1120F0B
:100360002AD119E0B8F5881F19D006DCB8F5803F0E
:1003700015D0B8F5801F1FD111E0B8F5001F0ED0C1
:10038000B8F5041F18D10AE0CB6815E0CB681B1D37
:1003900012E0CB6808330FE0CB680C330CE08B68BD
:1003A0002BB1012B4FF0080303D0456104E0042377
:1003B00002E0056100E00023FF2A01D8064601E0C3
:1003C00000F104064FEA840501D9A5F12005D6F80D
:1003D000008007FA05FC28EA0C0803FA05F548EA4C
:1003E0000508C6F800804D68ED0062D5374DAE694E
:1003F00046F00106AE61AD6924F0030605F0010583
:100400000095334D06EB050CDCF80850A607360FB7
:1004100007FA06F825EA0805DFF8B880404503D159
:100420004FF0000817E044E0DFF8AC80404502D10F
:100430004FF001080FE0DFF8A480404502D14FF0F3
:10044000020808E0DFF89880404502D14FF0030829
:1004500001E04FF0040808FA06F848EA0508CCF86D
:1004600008804D68D9F80060ED024D4601D516436D
:1004700000E096432E604D68DAF80060AD02554604
:1004800001D5164300E096432E604D68DBF800600E
:10049000AD035D4601D5164300E096432E604D68DE
:1004A000DEF80060ED03754601D5164300E0964383
:1004B0002E60641C0D682A46E5407FF431AFBDE82C
:1004C000F88F0000080401400000111000100240E5
:1004D0000000014000080140000C014000100140F4
:1004E000001401408068084000D001207047C268B5
:1004F00021EA02030A4043EA0241016170470AB15E
:10050000016170470904FBE70148806870470000FB
:100510009C00002070B5040025D094F83D00002513
:1005200020B984F83C50204600F0B8F8242084F824
:100530003D002068016821F0010101602068016828
:1005400041F4004101602068016821F4004101602C
:1005500000F014FF4D4A6168914201D84C4900E017
:100560004C49884201D2012070BD4B492368B0FB41
:10057000F1F15E6826F03F060E435E6063689342C9
:1005800006D94FF4967359434FF47A73B1FBF3F1E4
:100590002368491C1E6A26F03F06314319626168D0
:1005A000914210D84900401EB0FBF1F2521CC2F338
:1005B0000B02042A01D2042022E0B0FBF1F0401C1F
:1005C000C0F30B001CE0A268F2B301EBC10303EB24
:1005D0000116431EB3FBF6F35B1C43F480431B057B
:1005E00049D092B301EBC10202EB0111401EB0FBF6
:1005F000F1F0401CC0F30B0040F4804040F4004098
:100600002168CA694CF6FF739A431043C861D4E964
:10061000071001432068026822F0C0021143016004
:10062000D4E9030101432068826848F2FF339A430A
:1006300011438160D4E9050108432168CA6822F0AA
:10064000FF021043C86001E00EE016E02068016878
:1006500041F0010101602564202084F83D002563FC
:1006600084F83E50002070BD01EB4106431EB3FBF1
:10067000F6F35B1CB3E70120C2E701EB4101401E2A
:10068000B0FBF1F0401CC0F30B00B7E7A0860100FF
:1006900080841E0000093D0040420F0010B586B066
:1006A0000021009101910291039100681049884254
:1006B0001BD1104CA06940F00800A061A0696946F8
:1006C00000F0080004904FF4406000901220019068
:1006D000032003900848FFF715FEE06940F480000E
:1006E000E061E06900F48000049006B010BD0000F5
:1006F0000058004000100240000C01400248816890
:1007000002781144816070479C000020074810B5B2
:10071000016841F010010160032000F075F80F201E
:1007200000F006F800F024F8002010BD0020024080
:1007300070B50D4D04464FF47A712878B1FBF0F096
:100740000A490968B1FBF0F001F076F848B9102CBD
:1007500007D200222146501E00F036F800206C60BF
:1007600070BD012070BD00009C000020A80000208A
:100770000C4808B5816941F001018161816901F08E
:1007800001010091C16941F08051C161C06900F06F
:10079000805000900448416821F0E06141F0007110
:1007A000416008BD0010024000000140002809DB44
:1007B00000F01F02012191404009800000F1E0207B
:1007C000C0F8001170470000F0B40E4B1B680C46D7
:1007D000C3F30223C3F10705042D00D90425191D15
:1007E000072901D2002300E0DB1E012606FA05F1ED
:1007F000491E214099409E40761E16403143F0BC70
:1008000003F01BBF0CED00E0064900F0070208688A
:100810004FF6FF03184040EA0220034A10430860E5
:10082000704700000CED00E00000FA0510B50C0662
:1008300007D501F0070101EB810100EBC100103089
:1008400005E001EB810100EBC10000F5A87099B251
:1008500032B1012202730181190C4181002010BDC7
:1008600000220273C180F9E7704701EB810200EBBF
:10087000C202D0F8D402526A02F061BE01EB8102DA
:1008800000EBC202D0F8D402D2F8642102F0BABE62
:1008900070B504460B0601F0070000EB800104EB85
:1008A000C1014FF001024FF0000502D54A7410312A
:1008B00003E081F8515101F5A871087094F8900295
:1008C000012808D084F89022206803F0EBFA84F81D
:1008D0009052002070BD022070BD70B5044601F03A
:1008E0000F002279904201D9012070BD0B0601F062
:1008F000070000EB800104EBC1014FF001024FF053
:10090000000502D54A74103103E081F8515101F518
:10091000A8718D70087094F89002012808D084F8AE
:100920009022206803F05BFB84F89052002070BD99
:10093000022070BD2DE9F05F04685FEA424C0B783D
:100940008D69B4F850C04FF000064BF68F7948F22D
:10095000800A48F68F7B48F2C00E4FF480672AD594
:100960004FF0020808EBC308C44407EB4C07E45BF4
:10097000C4F30904A54203D32D1B8D6101D00BE004
:100980008E61066836F8235005EA090585F400559E
:1009900045EA0A0526F82350520609D50D78036862
:1009A00033F8252002EA0B0242EA0E0223F8252042
:1009B00084B30A8929E04FF0060808EBC308C44451
:1009C00007EB4C07E45BC4F30904A54203D32D1BDA
:1009D0008D6101D00BE08E61066836F8235005EA80
:1009E000090585F4005545EA0A0526F82350520604
:1009F00009D40B78056835F8232002EA0B0242EA95
:100A00000E0225F823202CB14A8949690068234643
:100A100003F0BEFD2046BDE8F09F2DE9F05F0546DE
:100A200000680C465FEA426C16468B692278B0F883
:100A300050C048F68F774CF280094FF4004B4FF6C8
:100A4000FF7E4FF4806A4FF0000172D54FF002082C
:100A500008EBC208E0440AEB480C30F80C00C0F385
:100A60000900834211D91B1AA3610FD0730407D563
:100A70002E6836F822303B4043EA090326F822303C
:100A800094F82420012A47D052E1A161607810B186
:100A9000012813D01AE02868B0F85030184400EB51
:100AA0000210B0F80424C2F30902A0F80424B0F83C
:100AB000042442F40042A0F8042407E02868B0F8B7
:100AC0005030184400EB0210A0F804146278286833
:100AD00012B1012A11D018E0B0F850100844217862
:100AE00000EB0110B0F80C14C1F30901A0F80C14CC
:100AF000B0F80C1441F4004105E0B0F85020104467
:100B0000227800EB0210A0F80C1421782846FFF799
:100B1000ACFE700472D40BE1626902446261E26966
:100B20000244E2612369226A9A4203D31846111AE9
:100B300004E03EE084F824100AB110462162617896
:100B400011B1012929D031E02968B1F850201144B0
:100B5000227801EB0211B1F80424C2F30902A1F8D2
:100B6000042401F204413E2807D94209C30600D1FA
:100B7000521E0B884BEA822207E048B14208C307A5
:100B800000D0521C0B880EEA822213430B800DE02A
:100B90000A8842F400420A8008E02968B1F850202F
:100BA0001144227801EB0211A1F8040483B22289D6
:100BB000BAE04FF0060808EBC208E0440AEB480C24
:100BC00030F80C00C0F30900834211D31B1AA36153
:100BD0000FD0730407D42E6836F822303B4043EA26
:100BE000090326F8223094F82420012A51D09FE0EE
:100BF000A161607818B1012814D01BE03FE028689B
:100C0000B0F85030184400EB0210B0F80424C2F3DE
:100C10000902A0F80424B0F8042442F40042A0F829
:100C2000042407E02868B0F85030184400EB0210A4
:100C3000A0F804146278286812B1012A11D018E0D3
:100C4000B0F850100844217800EB0110B0F80C14F3
:100C5000C1F30901A0F80C14B0F80C1441F40041E0
:100C600005E0B0F850201044227800EB0210A0F804
:100C70000C1421782846FFF7F8FD700458D4227828
:100C8000296831F82200384040EA090021F82200A2
:100C90004EE0626902446261E2690244E2612369F2
:100CA000226A9A4203D31846111A216204E00AB15B
:100CB0001046216284F824106278296812B1012A52
:100CC00028D02FE0B1F850201144227801EB021116
:100CD000B1F80C24C2F30902A1F80C2401F20C4172
:100CE0003E2807D94209C30600D1521E0B884BEAA1
:100CF000822207E048B14208C30700D0521C0B888B
:100D00000EEA822213430B800CE00A8842F4004270
:100D10000A8007E0B1F850201144227801EB02115B
:100D2000A1F80C04628983B26169286803F04EFC63
:100D30002278296831F8220048F6BF73184080F005
:100D4000300048F28003184321F822000020BDE85B
:100D5000F09F2DE9F04104460F0601F0070000EB7B
:100D6000800104EBC1014FF001064FF0000502D5F0
:100D70004E74103103E081F8515101F5A871022B36
:100D800008700A61CB7000D10D7194F890020128AF
:100D900009D084F89062206802F034FF284684F875
:100DA0009052BDE8F0810220FBE710B501F0070486
:100DB00004EB840100EBC101C1E959230022C1F811
:100DC0006C2181F8512181F85041006801F5A8712A
:100DD00003F05AF9002010BD70B504460D4601F02D
:100DE00007002179884201D9012070BD29064FF002
:100DF00000064FF0010206D500EB800104EBC101B3
:100E00004A74103107E005EB850104EBC10181F85C
:100E1000516101F5A8718A70087094F89002012858
:100E200007D084F89022206803F015F9680702D0F3
:100E300006E0022070BD04F52671206803F0CDF8AD
:100E400084F89062002070BD10B501F0070404EB37
:100E5000840100EBC101C1E90923012281F834209A
:100E60000B630023CB624A7401F8104F006803F053
:100E70000BF9002010BD00001FB50446006803F008
:100E800083FB010403D5204601F0E1FA1FBD4105B3
:100E90000DD5206830F8441F21F480610180204680
:100EA00000F000F90021204600F017F91FBD4104B1
:100EB00005D5206830F8441F21F4804174E0810496
:100EC00005D5206830F8441F21F400516CE0C104BE
:100ED00014D5206830F8401F21F0040101802068FB
:100EE00030F8401F21F008010180204600F0EDF8A5
:100EF000206830F8441F21F4805155E0010540D5A9
:100F0000D4F800200020694632F8203021F8103053
:100F1000401CC0B20828F7D332F8400F40F001005F
:100F20001080206830F8402F22F0010202802068F3
:100F3000B0F844205205FBD530F8442F22F48062EB
:100F400002800020236831F8102023F82020401C64
:100F5000C0B20828F6D3206830F8401F41F00801DD
:100F60000180206830F8441F21F40061018020686E
:100F700030F8401F41F004010180204600F0E0F805
:100F80001FBD810509D5206830F8441F21F4007188
:100F90000180204600F09DF81FBDC005FCD52068EB
:100FA00030F8441F21F4807101801FBD2DE9F0410C
:100FB000040004D094F89102002518B107E0012044
:100FC000BDE8F08184F89052204600F04DF80320EF
:100FD00084F891026571206802F0F8FF94E80F0030
:100FE00002F05EFF022698BB0021206803F0E6FABB
:100FF00070BB002001270BE000EB800104EBC10176
:101000004F740874CD740D624D62401CC0B28D6285
:1010100021798142F0D8002012E000BF00EB80016E
:1010200004EBC10181F8515181F8500181F853510D
:10103000C1F86051C1F86451401CC0B2C1F8685198
:1010400021798142EAD894E80F0002F0B6FF10B18E
:1010500084F89162B3E7657384F89172206802F0B6
:10106000AAFF0020ACE7000008B500680B498842E1
:1010700012D10B48C16941F40001C161C06900226D
:1010800000F40000009011461420FFF79DFBBDE81E
:1010900008401420FFF78ABB08BD0000005C004038
:1010A0000010024070B5044680790125022801D065
:1010B000FFF7CEF82946D4F8D40202F07BFBD4F82F
:1010C000D402BDE8704002F037BBD0F8D40202F081
:1010D0005BBBD0F8D40202F061BB10B5044690F8B7
:1010E000900201280AD0012084F8900261732068E0
:1010F00003F066FA002084F8900210BD022010BDB3
:10110000D0F8D42200F52671104602F05FBB10B56E
:10111000044690F89002012810D0012084F8900233
:10112000206803F022FA01212046FFF79DFB20688A
:1011300002F03FFF002084F8900210BD022010BD95
:1011400010B50446D0F8D40202F07FFBA07A002844
:1011500004D00348016841F00601016010BD0000A1
:1011600010ED00E02DE9F84305460078354CC00746
:1011700054D0E0690026C00008D4E06940F08050F7
:10118000E061E069012600F0805000902E4801687F
:10119000C90512D40168804641F480710160FFF7EF
:1011A000B3F9074605E000BFFFF7AEF9C01B64289E
:1011B00023D8D8F80000C005F6D5206A10F4407096
:1011C00021D0A98801F4407181421CD0206A1F49B6
:1011D000012220F440700A6000220A602062C007E9
:1011E00011D0FFF791F9074641F2883808E000BFB7
:1011F000FFF78AF9C11B414502D90320BDE8F883F6
:10120000206A8007F4D5206A696820F4407008439A
:1012100020621EB1E06920F08050E06128788007EC
:1012200005D56068A96820F44040084360602878CC
:10123000C00605D56068E96820F480000843606056
:101240000020DBE7001002400070004040044242F2
:101250002DE9F0470F46050061D0434E306800F09D
:101260000700B84209D2306820F0070038433060E8
:10127000306800F00700B84251D128683B4C810724
:1012800012D5400703D5606840F4E06060602878BC
:10129000000703D5606840F4605060606068A9682A
:1012A00020F0F000084360602878C00728D0686804
:1012B000012810D02168022810D0890700292EDAD1
:1012C000616821F0030101436160FFF71DF9804669
:1012D00041F288390DE021688903EFE78901EDE7E4
:1012E000FFF712F9A0EB0801494502D90320BDE838
:1012F000F0876068696800F00C00B0EB810FEFD1F7
:10130000306800F00700B8420BD9306820F00700C1
:1013100038433060306800F00700B84201D0012047
:10132000E5E72878400705D56068E96820F4E060C3
:10133000084360602878000706D56068296920F4B2
:10134000605040EAC100606000F028F86168084A17
:10135000C1F30311515CC8400649086006480068A3
:10136000FFF7E6F90020C2E700200240001002402B
:1013700096480008A8000020A00000200448054965
:1013800000684968044AC1F30221515CC8407047B3
:10139000A800002000100240A64800080E4A51682C
:1013A0000E4801F00C03042B11D0082B0FD10C4870
:1013B000C1F38343C903C05C0AD55168084AC1F32D
:1013C0004041921E515C054A5043B0FBF1F070471A
:1013D00004494843704700000010024000127A00A0
:1013E0008648000800093D002DE9F84F040070D040
:1013F0002078C04DC00749D06868C0F3810001283B
:1014000007D06868C0F38100022809D16868C0036A
:1014100006D52868800339D560680028E7D035E014
:101420006068B0F5803F0BD010B1B0F5A02F11D09F
:10143000286820F480302860286820F4802002E0AA
:10144000286840F480302860606890B1FFF75CF84D
:1014500006460AE0286840F480202860F0E700BFD4
:10146000FFF752F8801B642873D828688003F7D5EB
:101470000CE0FFF749F8064605E000BFFFF744F827
:10148000801B6428F0D828688003F7D420789A4E0F
:1014900080074FF001094FF0000839D5686810F057
:1014A0000C0F07D06868C0F38100022809D1686872
:1014B000C00306D42868800714D52069012808D104
:1014C00010E02069B0B1C6F80090FFF71DF807469C
:1014D00005E00AE1FFF718F8C01B0228C4D8286805
:1014E0008007F7D52868616920F0F80040EAC1005C
:1014F00028600DE0C6F80080FFF706F8074604E014
:10150000FFF702F8C01B022823D828688007F7D409
:10151000207800072CD57948A169D9B1C0F800908E
:10152000FEF7F2FF074604E0FEF7EEFFC01B0228BD
:101530000FD8686A8007F7D571484FF4FA510068F0
:10154000B0FBF1F0009000BF0098411E0091FAD26C
:101550000EE080E0C0F80080FEF7D6FF074604E00A
:10156000FEF7D2FFC01B022875D8686A8007F7D43F
:101570002078400760D5E8690027C00008D4E869F2
:1015800040F08050E861E869012700F08050009049
:101590005C480168C90513D40168834641F4807131
:1015A0000160FEF7B1FF824606E000BFFEF7ACFF28
:1015B000A0EB0A0064284ED8DBF80000C005F5D582
:1015C000E06801280AD008B1052813D0286A20F065
:1015D00001002862286A20F0040002E0286A40F036
:1015E00001002862E06841F2883B98B1FEF78CFF69
:1015F00082460BE0286A40F004002862EEE700BF54
:10160000FEF782FFA0EB0A0159455AD8286A8007E5
:10161000F6D50CE0FEF778FF824605E0FEF774FF92
:10162000A0EB0A0159454CD8286A8007F6D41FB1AF
:10163000E86920F08050E861E06988B36968C1F327
:101640008101022944D00228C6F8608004D0FEF748
:101650005BFF044638E034E0FEF756FF074604E03F
:10166000FEF752FFC01B02282BD828688001F7D450
:10167000206AB0F5803F05D16868A16820F4003089
:1016800008436860D4E908010843696821F47411CB
:1016900008436860C6F86090FEF736FF044606E02F
:1016A00025E000BFFEF730FF001B022809D828689C
:1016B0008001F7D51BE000BFFEF726FF001B0228C4
:1016C00002D90320BDE8F88F28688001F4D40EE029
:1016D0000128F7D06868226A00F48031914204D171
:1016E000616A00F47010884201D00120EAE700200E
:1016F000E8E700000010024000004242800442423D
:10170000A80000200070004070B5040008D0606A96
:10171000002538B12561656194F8510040B10CE0B5
:10172000012070BD6068B0F5827FF5D0E561F3E718
:1017300084F85050204600F047F8022084F8510009
:101740002068016821F040010160A088218900F42F
:10175000827001F404410843A18901F40061084347
:10176000217C01F002010843217D01F001010843C1
:10177000218B01F400710843217F01F038010843F7
:1017800094F8201001F080010843218D01F40051EC
:10179000084321680860A069042101EA104021681B
:1017A0004860A06AB0F5005F03D1A08D216880B2C7
:1017B00008612068C16921F40061C161656501208B
:1017C00084F85100002070BD30B585B0002400942D
:1017D00001940294039400681449884223D1144868
:1017E000816941F480518161816901F480510491E2
:1017F000816941F00401816180690E4D00F00400AF
:101800000490A020009002200190032003906946DC
:101810002846FEF777FD4020CDE9000469462846BA
:101820000294FEF76FFD05B030BD000000300140AE
:10183000001002400008014010B5401EB0F1807F4A
:1018400001D3012010BD4FF0E02460610F2160172B
:1018500002F0F3FE0020A06107202061002010BDEF
:101860007047704770B590F83C20012A26D00124BB
:1018700080F83C40022280F83D2003685A689D6849
:1018800022F070060A6832435A600D4B02689A4291
:1018900008D0B2F1804F05D00A4B9A4202D00A4BD1
:1018A0009A4204D1496825F080031943916080F879
:1018B0003D40002180F83C10084670BD022070BDFC
:1018C000002C0140000400400008004010B5040056
:1018D00003D094F83D0010B107E0012010BD0020B6
:1018E00084F83C00204600F01FF8022084F83D00F8
:1018F000211D206801F0C6FA012084F8460084F812
:101900003E0084F83F0084F8400084F8410084F8E9
:10191000420084F8430084F8440084F8450084F8C9
:101920003D00002010BD000008B5114A01681148B3
:10193000914211D1C16941F00201C161C069002227
:1019400000F00200009011461D20FEF73DFFBDE8AB
:1019500008401D20FEF72ABF074A914207D1C169FE
:1019600041F00401C161C06900F00400009008BDAD
:1019700000040040001002400008004090F83D10B4
:10198000012901D001207047022180F83D10016833
:10199000CA6842F00102CA6000680B49884208D058
:1019A000B0F1804F05D00949884202D008498842E9
:1019B00004D1816801F00701062903D0016841F0D4
:1019C0000101016000207047002C0140000400402C
:1019D0000008004070B5044690F83C00002501283E
:1019E00017D0012684F83C60022084F83D0020686E
:1019F000826822F0770222F47F42826008685028D1
:101A000038D00DDC20284FD005DC90B3102811D140
:101A10004AE0022070BD302846D040280AD13BE081
:101A200060282FD070280DD0B0F5805F03D0B0F5BE
:101A3000005F12D0012584F83D60002084F83C004E
:101A4000284670BDCB68D1E90121206801F0D8FAA1
:101A50002068816841F0770109E0CB68D1E9012174
:101A6000206801F0CDFA2068816841F480418160EE
:101A7000E1E719E0CA684968206801F0D3FA50210B
:101A8000206806E0CA684968206801F0DCFA602135
:101A9000206801F0BFFACEE7CA684968206801F003
:101AA000C1FA40212068F4E7226801461046F0E7B9
:101AB0002DE9F0410D46040003D094F83D0018B123
:101AC00008E00120BDE8F081002084F83C002046B9
:101AD00000F040F8022084F83D002068816844F25C
:101AE000070291438160211D206801F0CBF9226833
:101AF00090689169166A2B68AF69034340F203301E
:101B0000814341EA0721A868EF6908434FF6FC4189
:101B10008843E96840EA0720014328692F6A0001E9
:101B200040EA0730084369686D6926F0220646EAF4
:101B30000515294393602268906154F8460B0162B1
:101B4000012004F81F09E0752076E0762077A07563
:101B50000020B7E700B585B0002100910191029106
:101B600003910068B0F1804F18D10D48C16941F070
:101B70000101C161C16901F001010491816941F074
:101B8000040181618069694600F00400049003202B
:101B90000090012002900348FEF7B4FB05B000BDA1
:101BA000001002400008014070B590F83E60044605
:101BB00090F83F5090F8423090F84320022021B135
:101BC00004290ED0012E1BD114E0012E18D1012BB7
:101BD00016D184F83E0084F84200012200212068DA
:101BE00020E0012D0CD1012A0AD184F83F0084F8AD
:101BF000430014E0012D03D1012B01D1012A01D0B2
:101C0000012070BD84F83E0084F83F0084F8420053
:101C100084F8430001220021206801F06FF90122BD
:101C20000421206801F06AF92068016841F001018F
:101C30000160002070BD704770472DE9F0410446F7
:101C40000068C66805694FF00007A90713D5B107FA
:101C500011D5F91E01610120207720688069800775
:101C6000204602D0FFF7E8FF04E000F07EF82046AF
:101C700000F07CF82777680716D5700714D521681F
:101C80006FF004000861022020772068806910F45A
:101C9000407F204602D0FFF7CFFF04E000F065F858
:101CA000204600F063F82777280715D5300713D5AD
:101CB00021686FF008000861042020772068C0695F
:101CC0008007204602D0FFF7B7FF04E000F04DF890
:101CD000204600F04BF82777E80616D5F00614D515
:101CE00021686FF010000861082020772068C06923
:101CF00010F4407F204602D0FFF79EFF04E000F082
:101D000034F8204600F032F82777E80708D0F007CB
:101D100006D021686FF001000861204600F0F2F85B
:101D2000280608D5300606D521686FF080000861C6
:101D30002046FFF795FD680608D5700606D5216890
:101D40006FF040000861204600F0F2F8A8060AD5BE
:101D5000B00608D521686FF0200008612046BDE874
:101D6000F041FFF77EBDBDE8F081704770477047D6
:101D70002DE9F04117460D0004464FF000060CD047
:101D8000042D11D0082D16D094F84100022819D046
:101D900094F84100012818D07CE094F83E00022815
:101DA00010D094F83E00F5E794F83F00022809D0DF
:101DB00094F83F00EEE794F84000022802D094F82F
:101DC0004000E7E70220BDE8F081002F62D0002B41
:101DD00060D04649464ADFF81CC102204DB1042DAF
:101DE00018D0082D27D084F841000C2D44D00126AE
:101DF00079E084F83E00606A8162606A3946C262B6
:101E0000606AC0F830C02268606A3432FEF722FA95
:101E100088BB21E084F83F00A06A8162A06A39464D
:101E2000C262A06AC0F830C02268A06A3832FEF7E9
:101E300011FA00BB15E084F84000E06A8162E06AB4
:101E40003946C262E06AC0F830C02268E06A3C32BB
:101E5000FEF700FA78B909E02068C16841F4007122
:101E60001EE02068C16841F4806119E02068C16803
:101E700041F4006114E00DE0206B8162206B394673
:101E8000C262206BC0F830C02268206B4032FEF77F
:101E9000E1F908B1012096E72068C16841F480515A
:101EA000C16001222946206801F028F81249206803
:101EB000884203D1426C42F4004242642068884266
:101EC00008D0B0F1804F05D00C49884202D00C49AF
:101ED000884204D1816801F00701062903D0016816
:101EE00041F00101016030466DE70000172F000846
:101EF000752F0008AD2F0008002C014000040040A1
:101F0000000800400848094A8169491C8161002095
:101F100032F8101011B1491E22F81010401CC0B246
:101F20000528F5D37047000000000020AC03002016
:101F30007047FEE7F0B500230A24302537261F46F8
:101F400011E000BFB4EB107F02D905EB107C01E07B
:101F500006EB107C01F813C001EB430C00015B1C85
:101F60008CF80170DBB29342ECD3F0BD10B5114C8C
:101F70004FF400512046FEF7B5FA90B14FF40041FE
:101F80002046FEF7AFFA70B14FF480412046FEF7CD
:101F9000A9FA50B1A1142046FEF7A4FA38B10020E6
:101FA00010BD012010BD022010BD032010BD042073
:101FB00010BD0000000C014070B5FFF7D7FF1D4CAD
:101FC0000125E071A27A20EA020142408243217297
:101FD0006272A072012904D0022904D0032905D11C
:101FE00003E0257002E0657000E0A5700020012A82
:101FF00004D0022A04D0032A05D103E0207002E0B5
:10200000607000E0A070042912D1A08940F6B831B8
:1020100000F5FA7080B2A081884202D94FF4FA70BC
:10202000A08180B2FEF7E4F8E5702079401C2071B1
:1020300070BD0000000000202DE9F041134CE07855
:10204000012821D1D4E90510411AB1F5FA7F1BD33B
:102050000F4E4FF40055606129463046FEF747FAAF
:10206000A0790027401CC0B2A071062808D12079B1
:102070000122401E2071A77129463046FEF73FFA23
:102080002079002800D1E770BDE8F0810000002031
:10209000001001402DE9F04385B000253848009537
:1020A000019502950395816941F010018161816973
:1020B00001F010010491816941F020018161816981
:1020C00001F020010491816941F00401816181697D
:1020D00001F004010491816941F008018161806986
:1020E000012200F00800274F54030490214638468F
:1020F000FEF705FADFF89080002210214046FEF737
:10210000FEF9DFF88890002240214846FEF7F7F9F3
:10211000009401AA0124022682E87000694638462C
:10212000FEF7F0F810208DE851006946404603960E
:10213000FEF7E8F816480096CDE9010469464846DE
:10214000FEF7E0F84FF47040CDE9000569460294CF
:102150004846FEF7D7F840208DE831000320039071
:1021600069464846FEF7CEF8002201210720FEF717
:102170002BFB0720FEF71AFB05B0BDE8F08300003B
:10218000001002400010014000080140000C014016
:10219000000021100D4810B50B4901600C49416049
:1021A00000214FF480428160C0E9031241618161E6
:1021B000C1610162FEF7AEF9002803D0BDE810400E
:1021C000FEF746B810BD000000580040B8030020DC
:1021D000801A0600114810B50F4901604FF4827152
:1021E0004160002102228160C0E9031201224261A4
:1021F000520282611022C0E90721416251028162CC
:102200000A21C162FFF780FA002803D0BDE8104020
:10221000FEF71EB810BD0000003001400C04002085
:1022200010B58CB024216846FDF783FF00241548C3
:1022300009944FF080410A94C0E900144FF6FF71F1
:10224000C0E90241046184610320CDE9000401205A
:10225000CDE902040494CDE9054007946946094894
:102260000894FFF725FC08B1FDF7F2FF099409A9CE
:1022700004480A94FFF7F6FA002801D0FDF7E8FFBA
:102280000CB010BD6404002010B586B000241748BF
:1022900000940194029403940494134905940160FA
:1022A0004721C0E9011440F2E731C0E90314846119
:1022B000FFF70CFB08B1FDF7CBFF4FF48050009007
:1022C00069460A48FFF786FB08B1FDF7C1FF049491
:1022D00004A906480594FFF7C5FA002801D0FDF7C8
:1022E000B7FF06B010BD000000040040AC040020A1
:1022F00010B586B00024164800940194029403940B
:10230000049412490594C0E900145921C0E902411E
:10231000802104618161FFF7D9FA08B1FDF798FFC8
:102320004FF48050009069460948FFF753FB08B10D
:10233000FDF78EFF049404A905480594FFF792FA6F
:10234000002801D0FDF784FF06B010BD0008004052
:10235000F404002010B500220B490C4801F0C8F825
:1023600008B1FDF775FF0A49084801F094FA08B171
:10237000FDF76EFF054801F0E3FA002803D0BDE841
:102380001040FDF765BF10BD4C0000203C0500204B
:10239000B0000020FEE7000070B5114E0546002297
:1023A00010213046FEF7ABF8012002F065F9162047
:1023B00000F00CFD022002F099F90024002000F04A
:1023C00005FD2855641CE4B20C2CF7D30122102122
:1023D0003046FEF794F8BDE87040042002F04CB996
:1023E0000008014010B50A48FFF7D6FF0848817879
:1023F000C27801EB02220749CA810279407902EBD7
:1024000000200882BDE8104001F11C0002F0D0B9A4
:10241000BC010020000000200A480168486A02B29E
:102420000948002A01DDFF2106E0496A09B20029B6
:1024300001DA012100E08021C1724FF080410020CB
:10244000486270476404002000000020FEE72DE988
:10245000F84F044640F68F7B48F60F794FF48068BA
:102460004FF0000ABDE1B0F8441011F00F0539D06B
:1024700030F8256031047ED530F8251001EA0B01D3
:1024800041F0800120F8251005EB850004EBC00722
:1024900097F85C0107F5A87700286DD0F878022836
:1024A0006BD03978226832F8210048F68F731840D3
:1024B00048F2C003184322F821003978206830F828
:1024C0002120B0F8503052047DD5022202EBC10128
:1024D0005A1808EB4201415A8905890D009173D0C1
:1024E0003A89DDE0C9062BD4018801EA090141F4EB
:1024F00000410180206804F11005B0F85030217CC3
:10250000022202EBC1015A1808EB4201405AC0F303
:102510000900E062616A0844606200212046FEF71B
:10252000A4F9607B00289DD0A86900289AD1607B1F
:10253000216840F08000A1F84C0084F80DA050E123
:10254000018804F5A8750A0521D5B0F850202B782C
:10255000062101EBC3010A4408EB4201405A04F58D
:102560002671C0F30903EB61EA88206802F010F8D5
:102570002068018802E0AEE06EE07EE001EA0B0137
:1025800041F0800101802046FEF7BAFD29E10904EF
:10259000D5D5018801EA0B0141F080010180206856
:1025A000B0F850202B78062101EBC3010A4408EB58
:1025B0004201405A83059B0DEB6110D0696971B1EE
:1025C000EA88206801E05FE05DE001F0E1FFE96991
:1025D00068690844686100212046FEF74FF92168C8
:1025E00008880205ABD4C0F301300328A7D0B1F8A6
:1025F00050000844B0F80C14C1F30901A0F80C1401
:102600002A6900F20C403E2A09D95109D20600D1AC
:10261000491E02884FF4004343EA812109E0B2B128
:102620005108D20700D0491C02884FF6FF7303EA15
:1026300081210A430280216808884BF68F7210407E
:1026400080F4405048F2800210430880C9E00188BD
:1026500041F400410180EEE72068B0F850203B785B
:10266000062101EBC3010A4408EB4201415A8905E6
:10267000890D009118D0FA8812E03246394620467A
:10268000FEF758F900900FE0062202EBC1015A183C
:1026900008EB4201415A8905890D009104D07A89DD
:1026A0007969009B01F074FFF86900990844F861AA
:1026B0007969009808447861B86918B13969009857
:1026C000814204D939782046FEF7D8F803E039462C
:1026D000206801F0D9FC30062ED505EB850004EB0F
:1026E000C001206830F8252002EA090242F40042C5
:1026F00020F82520C87C103101281ED0F0056CD4AC
:102700002068B0F850300D78022202EBC5021A445E
:1027100008EB4202805A8A69C0F30900824255D907
:10272000121A8A6154D04A6902444A61CA69104443
:10273000C861206801F0A8FC53E0C1F818A0087B2C
:10274000524608B3700620D5487810B1012812D03F
:102750003AE02068B0F8502010440A7800EB0210EC
:10276000B0F80424C2F30902A0F80424B0F8042449
:1027700042F4004206E02068B0F8503018440B786C
:1027800000EB0310A0F804241EE04B78206813B17E
:10279000012B11D018E0B0F8502010440A7800EB5B
:1027A0000210B0F80C24C2F30902A0F80C24B0F80F
:1027B0000C2442F4004205E0B0F8503018440B7885
:1027C00000EB0310A0F80C24097802E0C1F818A06F
:1027D000E9B22046FEF749F803E032462046FEF70C
:1027E0001CF92068B0F8441009043FF53CAE002005
:1027F000BDE8F88F704710B507217F2002F022F85E
:102800004121402002F01EF800217F2002F01AF83A
:102810008021402002F016F80E217F2002F012F8ED
:102820000D21552002F00EF81B21562002F00AF867
:10283000E821572002F006F8D521582002F002F8CE
:1028400014217F2001F0FEFFBC21422001F0FAFF9D
:102850007421432001F0F6FF20214B2001F0F2FF0C
:1028600000214D2001F0EEFF0E21532001F0EAFF80
:1028700005217F2001F0E6FF0421442001F0E2FF62
:1028800006214D2001F0DEFF4021512001F0DAFF4A
:102890004021532001F0D6FFCA21552001F0D2FF7C
:1028A000E8215A2001F0CEFFEA215B2001F0CAFFA7
:1028B0003121612001F0C6FF6421622001F0C2FFD6
:1028C000B8216D2001F0BEFF0F216E2001F0BAFF8C
:1028D0000221702001F0B6FF2A214A2001F0B2FF48
:1028E0002621602001F0AEFF06217F2001F0AAFF23
:1028F00070216D2001F0A6FF60216E2001F0A2FF83
:1029000004216F2001F09EFF0221532001F09AFF65
:102910001121552001F096FF01217A2001F092FF4C
:1029200051217D2001F08EFF07217F2001F08AFFD9
:102930001021412001F086FF3221422001F082FF68
:102940000021432001F07EFF08217F2001F07AFF63
:102950004F21712001F076FF09217F2001F072FFE5
:102960001F21622001F06EFF1F21632001F06AFF2A
:102970000321652001F066FF0321662001F062FF5C
:102980001F21672001F05EFF1F21682001F05AFF20
:102990000321692001F056FF03216A2001F052FF54
:1029A0001F216C2001F04EFF1F216D2001F04AFF16
:1029B0000421512001F046FF2021532001F042FF65
:1029C0002021542001F03EFF0C21712001F03AFF3C
:1029D0000721722001F036FF0721732001F032FF3A
:1029E0000A217F2001F02EFF14214A2001F02AFF46
:1029F00014214C2001F026FF1921552001F022FF5F
:102A000014217F2001F01EFF30214B2001F01AFF1E
:102A100003214C2001F016FF0B21612001F012FF71
:102A20000A21622001F00EFF0221632001F00AFF5B
:102A300015217F2001F006FF02214C2001F002FF4A
:102A40000221562001F0FEFE9121412001F0FAFE04
:102A50000A214D2001F0F6FE0C217F2001F0F2FE4C
:102A600010214A2001F0EEFE0C214B2001F0EAFE7D
:102A700040214C2001F0E6FE2521412001F0E2FE3C
:102A80001821552001F0DEFE1421562001F0DAFE57
:102A90000A21492001F0D6FE0021422001F0D2FE99
:102AA0002D21432001F0CEFE0C21442001F0CAFE6E
:102AB0001A21542001F0C6FE0D215A2001F0C2FE59
:102AC0001E215F2001F0BEFE05215B2001F0BAFE51
:102AD0000F215E2001F0B6FE0D217F2001F0B2FE35
:102AE000DD21482001F0AEFE03214F2001F0AAFEB7
:102AF0004921522001F0A6FE0021512001F0A2FE42
:102B00005B21542001F09EFE0021532001F09AFE2B
:102B10006421562001F096FE0021552001F092FE1E
:102B2000A521582001F08EFE0221572001F08AFED7
:102B300029215A2001F086FE47215B2001F082FE08
:102B400081215C2001F07EFE40215D2001F07AFEB3
:102B5000DC21712001F076FE0721702001F072FE69
:102B60000021732001F06EFE0821722001F06AFE40
:102B7000DC21752001F066FE0721742001F062FE61
:102B80000021772001F05EFE0821762001F05AFE38
:102B900010217F2001F056FED0214C2001F052FE82
:102BA00000217F2001F04EFE63214F2001F04AFEFC
:102BB00000214E2001F046FE6321522001F042FE2A
:102BC0000021512001F03EFE5421084601F03AFE5A
:102BD00010215A2001F036FE4F21772001F032FEFD
:102BE0000121472001F02EFE40215B2001F02AFE4A
:102BF0006021642001F026FE0621652001F022FEFE
:102C00001321662001F01EFE0F21672001F01AFE3D
:102C10000121782001F016FE9C21792001F012FE9E
:102C20000021402001F00EFE0221552001F00AFE95
:102C30007021232001F006FE0121222001F002FE76
:102C4000012001F03FFD00246C2001F0E3FD80280D
:102C500006D0012001F036FD641CE4B23C2CF3D315
:102C60003C2C0BD114217F2001F0ECFD00216C20C5
:102C700001F0E8FD00217F2001F0E4FD0021222089
:102C800001F0E0FD0021552001F0DCFD07217F204F
:102C900001F0D8FD4021084601F0D4FD0021BDE837
:102CA00010407F2001F0CEBD70B5322001F00AFD4A
:102CB0001F4D002210212846FDF721FC012001F0C4
:102CC000DBFC012210212846FDF719FC012001F050
:102CD000D3FC002210212846FDF711FC012001F051
:102CE000CBFC5A213A2001F0ADFD052001F0EAFCB1
:102CF000FFF781FD012210212846FDF700FC01208D
:102D000001F0BAFC0224204601F084FD022001F00B
:102D1000EDFC641CE4B2062CF5D9012210212846F2
:102D2000FDF7EDFBBDE87040042001F0A5BC0000FC
:102D3000000801402DE9F04100231D4D0526DFF874
:102D400074801C460127687900EB4410C0B201F082
:102D500051FCC0F30741C0F30722B1FBF6F1B2FB0F
:102D6000F6F2C0B2B0FBF6F0090441EA02210143D9
:102D70001720424607FA00FC1CEA010F02D04FF070
:102D80003C0C01E04FF01C0C22F813C05B1C9BB202
:102D9000401EEFD5641C082CD5DBF223054A002128
:102DA0000548FEF7E5FF6879C01C6871BDE8F08151
:102DB00000000020C8010020F4040020024600208A
:102DC00092680A4200D001207047000010B5094CFB
:102DD000034602212046FFF7F1FF0028F9D0E36007
:102DE000234601211846FFF7E9FF0028F9D0D868EB
:102DF000C0B210BD003001407047FDF77FBC30B558
:102E000093B028216846FDF794F914210AA8FDF72C
:102E100090F9002401200F9410941194010412944D
:102E20008DE8130004904FF4E010CDE9081002255E
:102E300007956846FEF7D8FA08B172B6FEE70F208C
:102E4000CDE90A054FF48060CDE90C4002210AA8C3
:102E50000E94FEF7FDF908B172B6FEE710200F9050
:102E600012940FA8FEF77EF9002801D072B6FEE793
:102E700013B030BD704700000148FEF7DEBE000011
:102E8000AC040020F0B50268194B1A4C1A4D4FF0F3
:102E90008047984205D0B84203D0A04201D0A84252
:102EA00003D122F070064A683243984205D0B842F6
:102EB00003D0A04201D0A84203D122F44074CA68D2
:102EC00022434C6922F08002224302608A68C26277
:102ED0000A688262984201D1096901630121416156
:102EE0000169C90703D0016921F001010161F0BD49
:102EF000002C0140000400400008004010B501F023
:102F00001F030121046A99408C430462016A9A40BC
:102F10001143016210BD10B5446A0121626A824208
:102F200005D121778069F8B984F83E101CE0A26AC7
:102F3000824206D1022222778069A8B984F83F1024
:102F400012E0E26A824206D104222277806958B9EF
:102F500084F8401008E0226B824205D108222277D3
:102F6000806908B984F841102046FEF7FFFE002072
:102F7000207710BD10B5446A616A814201D10120F9
:102F80000DE0A16A814201D1022008E0E16A81429C
:102F900001D1042003E0216B814201D10820207778
:102FA0002046FEF7E4FE0020207710BD10B5446AED
:102FB0000121626A824203D1217784F83E1019E030
:102FC000A26A824204D10220207784F83F1011E0E7
:102FD000E26A824204D10420207784F8401009E09C
:102FE000226B824204D10820207784F8411001E04E
:102FF00084F83D102046FEF71EFE0020207710BD0D
:1030000010B5846842EA032224F47F440A43224331
:10301000826010BD826822F070020A4342F007010C
:103020008160704710B5036A046A24F001040462E9
:10303000846924F0F00444EA021423F00A020A43EB
:103040008461026210BD10B5036A046A24F01004A2
:103050000462846923F0A00324F4704444EA023239
:1030600043EA01118261016210BD00000649074A6E
:10307000002000BF01EBC0039B8822F81030401CE9
:10308000C0B20528F6D3704724000020AC0300200E
:1030900070B5094E094D002436F8140038B905EB17
:1030A000C400808826F8140055F834008047641C5A
:1030B000E4B2052CF0D370BDAC0300202400002046
:1030C00010B5D0F8B42252689047002010BD1346C6
:1030D00010B50A46002100F026FB002010BD134663
:1030E00010B50A46002100F0B9FB002010BD10B554
:1030F0000446802100F097FB2046BDE810400021E7
:1031000000F091BB10B505210023C0F894121A46B7
:10311000194600F008FB002010BD10B50223C26163
:10312000C0F89432026213460A46002100F096FB72
:10313000002010BD10B504210023C0F894121A46D7
:10314000194600F08BFB002010BD000010B50A46A8
:10315000024903A000F0E2F8004810BD000800207A
:1031600048494420436F6E6669670000122008805A
:10317000004870476C00002010B50A46024903A0C1
:1031800000F0CCF8004810BD000800204849442059
:10319000496E7465726661636500000004200880F2
:1031A000004870476800002010B50A46024903A095
:1031B00000F0B4F8004810BD0008002053544D69D9
:1031C00063726F656C656374726F6E696373000020
:1031D00010B50A46024903A000F0A0F8004810BD4F
:1031E0000008002053544D33322048756D616E2025
:1031F000696E7465726661636500000010B51A201F
:1032000008800A480168001D0468001D006808184D
:1032100009D008220649FEF78DFE05490422103127
:103220002046FEF787FE0248801E10BDE8F7FF1F0C
:1032300082000020F8B504460020ADF80000488860
:103240000D46010A082948D2DFE801F047040917B2
:1032500047473C45D4F8B012207C0A6819E0207C2E
:1032600002260028D4F8B40205D0C16A684688470F
:10327000014646703EE0816AF8E7C0B206282CD2CB
:10328000DFE800F0030A1014181CD4F8B0024268FA
:1032900005E0694690471CE0D4F8B0028268E2B1CC
:1032A000207CF6E7D4F8B002C268F8E7D4F8B002A0
:1032B0000269F4E7D4F8B0024269F0E7D4F8B0024A
:1032C0008269ECE7207C40B9D4F8B402416B6846CF
:1032D000884701460EE0207C20B129462046FFF7B2
:1032E00006FFF8BDD4F8B402016B68468847014672
:1032F00007204870BDF8000048B1EA8852B1824208
:1033000000D90246ADF800202046FFF706FFE88806
:103310000028E6D12046FFF70DFFF8BD70B5002369
:1033200000281ED00446002502E06D1CEDB2641C8E
:103330002678002EF9D1022404EB4504148012787B
:10334000CA545B1C0322CA5400245B1C06E0CA5406
:103350005B1CDAB28C54521CD3B2401C0278002A97
:10336000F5D170BD01004FF0000004D0012901D05B
:10337000022901D00220704701207047D0F8B8021E
:10338000002101730846704770B50446812100F0A2
:10339000CDF80025E562D4F8B80218B100F02DFC94
:1033A000C4F8B852002070BD0A210180004870475F
:1033B000600100202221018000487047E8000020C1
:1033C00022210180004870470C0100202221018049
:1033D000004870473001002010B504460423032242
:1033E000812100F094F90120E062102000F006FC39
:1033F000C4F8B80218B100210173084610BD0220BC
:1034000010BD10B5134690F89C42D0F8B822032C9A
:1034100007D1147B2CB9012414730A46812100F0D2
:103420001DFA002010BD000038B503460022D0F878
:10343000B802ADF8002014460A7812F0600216D0E7
:10344000202A4AD14A78022A0ED0032A06D00A2A14
:1034500006D00B2A41D18978016042E001222BE09D
:103460004988090A41603CE00122011D25E04A78B3
:1034700032B1062A0BD00A2A23D00B2A2DD128E0FC
:1034800093F89C02032828D10222694615E0488857
:103490002222B2EB102F05D1CA884A2A00D94A222B
:1034A000124809E02122B2EB102F16D10F48CA882A
:1034B0001838092A00D9092201461846FFF72DFEBF
:1034C0000FE093F89C22032A07D1012200F10801A2
:1034D000F3E793F89C22032A05D01846FFF707FE6E
:1034E0000224204638BD89788160FAE76C0100200B
:1034F00010B580B1D0F8B43213B10023C0F8B432A3
:1035000009B1C0F8B012012180F89C12027000F0DD
:10351000BBF8002010BD022010BD10B5D0F8C002CD
:10352000FDF7DBF9BDE81040FFF71CBF10B5D0F880
:10353000C002FDF7ADF9BDE81040FFF713BF2DE95C
:10354000F0411746044651B1D4F8B40242691AB1A9
:1035500094F89C02032851D00220BDE8F081D4F8F1
:103560009432002504F11400022B03D0042B3AD02E
:10357000C3B33CE0D0E903639E4207D9F11AC160AE
:103580008AB239462046FFF7AAFD12E08068B0FBF8
:10359000F3F103FB110199B9984211D3D4F89812B1
:1035A00088420DD2002211462046FFF798FDC4F84C
:1035B000985200231A461946204600F0B4F816E047
:1035C000D4F8B402C16829B194F89C02032801D14F
:1035D000204688478021204600F025F92046FFF745
:1035E00091FD04E0FFE78021204600F01CF994F8EB
:1035F000A002012804D184F8A05201E0204690479F
:103600000020AAE770B51546044649B1D4F8B402C3
:1036100082691AB194F89C02032830D0022070BD50
:10362000D4F8941204F5AA70032902D005291ED0FB
:1036300027E0D0E903218A420BD9531AC360084618
:10364000834200D303469AB229462046FFF73FFD46
:1036500017E0D4F8B402016929B194F89C02032858
:1036600001D1204688472046FFF764FD09E000208D
:103670000146C4F89402204600F0D5F801E0204647
:103680009047002070BD000010B517490446C1F8EE
:10369000D402C0F8C0121548086008200871022042
:1036A000887100208872C87208730846FDF77EFC96
:1036B00008B1FCF7CDFD0022D4F8C0021823114652
:1036C00004F53074FDF7B2F85823002280212068F9
:1036D000FDF7ACF84FF48073002281212068FDF7DC
:1036E000A5F8002010BD0000140A0020005C004076
:1036F0000A0601F07F01D0F8C00201EB810100EB66
:10370000C10001D5807C704790F85201704710B518
:103710001C461346D0F8C0022246FDF71AFBBDE84E
:103720001040FFF71FBE10B5D0F8C002FDF73DFBFB
:10373000BDE81040FFF716BE70B5002204464023D6
:103740001146FFF7E4FF40260125C4F864613346C3
:10375000002280212046C4F85851FFF7D8FF666246
:10376000A56184F89C520020C4F894026060C4F8FB
:10377000A402D4F8B80228B1D4F8B40200214268F7
:1037800020469047002070BD90F89C12042903D178
:1037900090F89D1280F89C120020704710B590F8A8
:1037A0009C12032904D1D0F8B412C96901B1884729
:1037B000002010BD01740020704710B5D0F8C00281
:1037C000FDF78BFCBDE81040FFF7CCBD70B504469B
:1037D00000F52A70054600F04AF80120C4F894026A
:1037E000B4F8AE02C4F8980294F8A80210F01F01D1
:1037F0000AD001290DD0022910D000F08001204606
:1038000000F011F8002070BD2946204600F09DF818
:10381000F8E72946204600F0C9F9F3E72946204693
:1038200000F01CF9EEE710B5D0F8C002FDF7D4FAAD
:10383000BDE81040FFF796BD10B5D0F8C002FDF707
:1038400066FCBDE81040FFF78DBD90F89C1280F833
:103850009D12042180F89C120020704710B5D0F80A
:10386000C002FDF7F1FABDE81040FFF77BBD0A7812
:1038700002704A7842708A78CB7802EB0322428049
:103880000A794B7902EB032282808A79C97902EBAB
:103890000121C18070470246002011B1C2F8B41264
:1038A00070470220704710B5D0F8B42202241AB134
:1038B0001268904700B90024204610BD70B50E462E
:1038C0001E4D897804462970012931D894F89C024C
:1038D00002280BD003280FD031462046FFF707FC03
:1038E00029782046BDE87040FFF7EABBD9B1032034
:1038F000616084F89C0209E071B16068884212D06E
:10390000C1B22046FFF7DCFB297861602046FFF753
:10391000CAFF02280CD006E0022084F89C02204650
:103920006160FFF7CDFB2046BDE87040FFF702BCA9
:1039300031462046BDE87040FFF7D9BBAC000020FF
:1039400010B5FFF779FF002010BD2DE9F0410A788E
:10395000002612F0600208D0202A01D0402A70D13F
:10396000D0F8B422926890476DE04B780022012590
:103970000A2B66D2DFE803F0405D655765080565F0
:103980002C29FFF757FC5EE004468888D8B9C88820
:10399000C8B94888802816D200F07F0794F89C02A6
:1039A000032810D084F89E7239462046FFF705FFA1
:1039B0002046FFF7BFFB1FB1022084F89C0242E0C3
:1039C00084F89C523FE020463BE0FFF777FF3AE067
:1039D000CB88012B35D190F89C32012B04D0022BDF
:1039E00002D0032B2DD104E08260012200F10801F6
:1039F00016E00122011D13E090F89C22012A03D059
:103A0000022A01D0032A1CD1CA88022A19D1C56012
:103A1000D0F8A41209B10321C160022200F10C0107
:103A2000FFF77BFB0FE0498801290CD1C0F8A452B5
:103A300011E090F89C32012B08D0022B06D0032B0A
:103A400004D0FFF754FB3046BDE8F08149880129D6
:103A5000F9D1C0F8A422FFF76DFBF4E72DE9F0419E
:103A60000A46044610780027097910F060030AD04E
:103A7000202B01D0402B50D1D4F8B40211468368DA
:103A8000204698478FE0C0F34110012806D05078B7
:103A9000D0B301282AD003283FD107E0D4F8B402DC
:103AA000114683682046BDE8F041184794F89C020F
:103AB000022802D0032872D10AE071B380296ED0A7
:103AC0002046FFF7B0FE80212046FFF7ACFE6AE0FB
:103AD000508838B931B1802904D0D08810B9204637
:103AE000FFF7A1FE2046FFF725FB5CE094F89C025F
:103AF0000228E2D0032852D1508898BB4806F1D062
:103B00002046FFF70AFDEDE7FFE794F89C02002648
:103B1000022803D0032842D112E040E009B18029F5
:103B20003DD1080601F07F0000EB800004EB80012E
:103B300001D5143101E001F5AA7102220E602AE0DC
:103B4000080601F00F0000EB800004EB80000AD5AE
:103B5000806920B301F07F0000EB800004EB80055A
:103B600014350BE01FE0D0F85801C0B101F07F0020
:103B700000EB800004EB800505F5AA7541B18029B2
:103B800006D02046FFF7B4FD10B10120286000E008
:103B90002E60022229462046FFF7BFFA03E01146B5
:103BA0002046FFF7A4FA3846BDE8F08170B5054617
:103BB00008780C4610F0600003D0202801D040287F
:103BC00016D195F89C02012803D0022801D00328C1
:103BD0000ED1207901280BD8D5F8B4028268284686
:103BE0009047E188014306D12846FFF7A3FA02E097
:103BF0002846FFF77CFA002070BD704700487047E8
:103C0000000A00202DE9F0470C78002630F8243017
:103C100048F68F121340CA78002A78D0012A7CD047
:103C2000022A02D0032A75D0012648F280021343EB
:103C300020F824300D7830F8253048F68F74234072
:103C40002B43134320F825300D7B48F2C00948F67A
:103C5000BF734CF2800A4BF68F77EDB3CD7891F8B5
:103C600000C0022D30F82C507DD048F68F6805EA50
:103C70000805154320F82C50B0F8505091F800C0BA
:103C8000054405EB0C15B1F808C02CF0010CA5F8A3
:103C900000C4B0F8505091F800C0054405EB0C1575
:103CA000B1F80AC02CF0010CA5F808C44D78002D1D
:103CB0007ED00D7830F825C05FEA4C4C07D530F83F
:103CC00025C00CEA040C4CEA0A0C20F825C091F837
:103CD00000C030F82C5000E022E06D0606D530F828
:103CE0002C50254045EA090520F82C50CC780D7859
:103CF000012C30F8254004EA03047CD084F0200332
:103D0000134320F82530C1E001E006E002E043F46F
:103D100000738AE743F4C06387E743F4806384E772
:103D20004D784DB3B0F850500F78054405EB0715AA
:103D3000CF8827F00107A5F800740F7830F82750D6
:103D40006D0606D530F82750254045EA090520F8CC
:103D50002750CC78012C07D00C7830F8241019406B
:103D600081F0200104E064E00C7830F82410194060
:103D7000114320F8241090E0B0F850300D7803443F
:103D800003EB0513CD8825F00105A3F80854B0F81E
:103D900050300D78034403EB0513B3F80C54C5F30E
:103DA0000905A3F80C540D6903F20C433E2D00E005
:103DB00045E00BD94FEA551CED0601D1ACF1010CE1
:103DC0001D884FF4004848EA8C2C0BE035B34FEACD
:103DD000550CED0701D00CF1010C1D884FF6FF7852
:103DE00008EA8C2C45EA0C051D800D7830F825304A
:103DF0005B0408D500E046E030F82530234043EA74
:103E00000A0320F82530097861B130F821303B40B1
:103E100083F40053134320F821303EE01D8845F41D
:103E20000045E1E70188394081F4405111430180A8
:103E300033E0254048F2801845EA08051AE791F872
:103E400000C030F82C506D0406D530F82C502540B9
:103E500045EA0A0520F82C5091F800C030F82C50A3
:103E60006D0606D530F82C50254045EA090520F8A6
:103E70002C500D7830F825403C4084F440541443D5
:103E800020F8254070E7144320F825400B7830F8DF
:103E900023103940114320F823103046BDE8F08745
:103EA000002070472DE9F04391F80C804F780A7894
:103EB00048F6BF7C4BF68F7948F2800348F2C00584
:103EC0004CF2800648F68F74B8F1000F28D0002F0E
:103ED00030F822704FEA474748D0002F05DA30F813
:103EE00022702740374320F822700A7830F8227079
:103EF0007F0605D530F8227027402F4320F8227026
:103F00000D7830F825202240324320F825200C7807
:103F100030F8242002EA0C021A4320F824201AE088
:103F20007FB130F82260760605D530F82260264051
:103F30002E4320F822600A7830F8221001EA0C01A2
:103F40000EE030F822506D0405D530F8225025409F
:103F5000354320F822500A7830F8221001EA09018E
:103F6000194320F822100020BDE8F083002F05DA65
:103F700030F822702740374320F822700A7830F852
:103F80002260760605D530F8226026402E4320F8C0
:103F900022600E7830F8262022402A4320F826207E
:103FA0000C7830F8242002EA09021A4320F8242071
:103FB000C1E70020704700207047012120F8401F12
:103FC00000210180818001820846704730F8401F3F
:103FD00021F43F410180002070470020704730B538
:103FE0000A7BB2BB4A7848F68F7548F28004C2B1AA
:103FF0000B7830F82320520607D530F823202A40CA
:1040000048F2C0052A4320F82320CA78012A20D08C
:104010000A7830F8221048F6BF73194081F0200169
:1040200014E00A7830F822305B0407D530F82230EB
:104030002B404CF280052B4320F822300A7830F8D0
:1040400022104BF68F73194081F44051214320F820
:104050002210002030BD10B54A780978002A48F2B5
:10406000800330F8212005D048F6BF74224082F04A
:10407000100204E04BF68F74224082F480521A43FF
:1040800020F82120002010BD2DE9F0470D464B7887
:10409000097B04464FF0000948F68F7248F2800A07
:1040A0004FF400474FF6FF78012B09D000296FD05D
:1040B000E87802286DD001286CD00120BDE8F08797
:1040C000AE692869864200D9064691B1E97802298D
:1040D0001ED0286A801B2862287834F820104906F0
:1040E000B4F85010214401EB001073D5A0F80C6413
:1040F00016E1B3B2EA882046696900F067FAB4F8BD
:1041000050002978204400EB0110A0F804640DE170
:10411000296A814277D9297834F82100104048F281
:104120008012104324F82100286A801B2862287816
:1041300034F820104906697871D511B101292AD0C7
:1041400030E0B4F85010214401EB0010B0F80C142A
:10415000C1F30901A0F80C1400F20C403E2E07D95F
:104160007109F20600D1491E028847EA812107E061
:104170004EB17108F20700D0491C028808EA81217B
:104180000A4302800EE0018841F40041018009E009
:10419000F1E020E195E1B4F85020111901EB001095
:1041A000A0F80C646A89B3B22046696900F00EFA7F
:1041B0006869304468612969286A884202D9801B8D
:1041C000286202E00646C5F82090687818B10128F8
:1041D0002BD032E02FE0B4F850002978204400EBD7
:1041E0000110B0F80414C1F30901A0F8041400F29E
:1041F00004403E2E08D97109F20600D1491E0288FA
:1042000047EA812108E0A1E056B17108F20700D029
:10421000491C028808EA81210A4302800DE00EE071
:10422000018841F40041018007E0B4F8500029788A
:10423000204400EB0110A0F804642A8971E011B158
:10424000012927D02DE0B4F85010214401EB0010D3
:10425000B0F80414C1F30901A0F8041400F20440FA
:104260003E2E07D97109F20600D1491E028847EA9D
:10427000812107E04EB17108F20700D0491C028885
:1042800008EA81210A4302800BE0018841F40041E1
:10429000018006E0B4F85010214401EB0010A0F8B2
:1042A00004642A89B3B22046696900F08FF968690D
:1042B000304468612969286A884202D9801B2862D3
:1042C00002E00646C5F82090687810B1012836D083
:1042D00026E0B4F850002978204400EB0110B0F833
:1042E0000C14C1F30901A0F80C1400F20C403E2E8E
:1042F00007D97109F20600D1491E028847EA8121D7
:1043000007E04EB17108F20700D0491C028808EAA4
:1043100081210A43028003E0018841F400410180C9
:104320006A89B3B22046696900F050F9297834F8F7
:10433000210048F6BF72104080F030000FE1B4F861
:1043400050100819297800EB0110CFE62A7834F8CC
:10435000220048F68F63184040EA0A0024F8220041
:10436000B4F850002A78204400EB02108BB2A0F879
:1043700004342A89D6E7A9692869814202D9091A31
:10438000A96102E00846C5F81890B4F850102A78E0
:10439000214401EB0211B1F80C24C2F30902A1F887
:1043A0000C2401F20C413E287DD94209C00600D1FF
:1043B000521E088847EA82220AE0088840F400403A
:1043C00007E04208C00700D0521C088808EA822291
:1043D00010430880BBE033BBB4F850002978204478
:1043E00000EB0110B0F80414C1F30901A0F80414A3
:1043F000296900F204403E2907D94B09C90600D1BA
:104400005B1E018847EA832307E041B14B08C907D7
:1044100000D05B1C018808EA8323194302E001886D
:1044200041F400410180687810B1012828D030E0C3
:10443000B4F850002978204400EB0110B0F80C14B7
:10444000C1F30901A0F80C14296900F20C403E29BF
:1044500007D94B09C90600D15B1E018847EA8323AF
:1044600007E041B14B08C90700D05B1C018808EA8E
:104470008323194302E0018841F40041018008E0F0
:10448000B4F850100819297800EB0110298AA0F817
:104490000C14E869C0B3297834F82100430401D52D
:1044A000430605D400E046E044F2400318424ED1F2
:1044B00034F82100104048F2C002104324F82100D3
:1044C00045E0A9692869814202D9091AA96102E077
:1044D0000846C5F8189013BBB4F850102A78214448
:1044E00001EB0211B1F80424C2F30902A1F804247B
:1044F00001F204413E2808D94209C30600D1521EE8
:104500000B8847EA822208E021E078B14208C3071D
:1045100000D0521C0B8808EA822213430B80697872
:1045200000293FF42EAF012909D010E00A8842F497
:1045300000420A80F3E700287FF443AF3DE7B4F878
:10454000502011192A7801EB0211A1F80C042978E6
:1045500034F821004BF68F72104080F4405040EA4E
:104560000A0024F821000020A8E50021A0F844104A
:104570004FF43F41A0F84010002070470148FCF77D
:104580007BBC0000140A0020B0F844007047000013
:1045900010B500EB42005C0800F5806009D000BF58
:1045A00030F8042B01F8012B120A01F8012B641ECC
:1045B000F6D1DA0701D00088087010BD00207047DE
:1045C00011B98021A0F84C100020704710B55B1C79
:1045D00000EB42005B0800F5806009D011F8012B68
:1045E00011F8014B42EA042220F8042B5B1EF5D19E
:1045F00010BDFEE7C0F1FF00552805D200EB4001D9
:10460000A0EB8000FF3015E0AA2809D25538C0B2CF
:10461000A0EB800100EB4000FF3141EA0020704731
:10462000AA38C0B2A0EB80014FF47F4202EB012117
:1046300000EB400041EA004070470907090E0028DE
:1046400004DB00F1E02080F80014704700F00F0058
:1046500000F1E02080F8141D704702E008C8121F26
:1046600008C1002AFAD170477047002001E001C15B
:10467000121F002AFBD170474FF0E0214861002251
:104680008A61012008610869C30701D0C003FAD517
:104690000A618A61704700004FF0E0210A6922F048
:1046A00004020A610649C00800EB40020870C2EB30
:1046B000C0104FF6FF7202EAC00048807047000049
:1046C000B60100200849498848434FF0E02148617D
:1046D0000020886101220A610A69D30701D0D20350
:1046E000FAD5086188617047B60100200849097849
:1046F00048434FF0E02148610020886101220A61AF
:104700000A69D30701D0D203FAD5086188617047DE
:10471000B6010020FBF7FAFFFEF771FBFDF7BAFCCC
:10472000FDF718FEFDF756FDFDF7AEFDFDF778FD30
:10473000FDF730FDFDF7DCFD4820FFF7ADFF124827
:104740000068016841F0400101606420FBF7BAFD98
:10475000FEF7AAFA0D4800F01FF80C481C388089B3
:10476000FBF746FD0A496FF0010009680861084837
:10477000FDF704F93C210748FDF716FAFEF776FC31
:10478000FEF786FCFCE700000C0400201C00002063
:10479000AC04002064040020017821F007010170BE
:1047A0000021A0F80110A0F803104171704700002B
:1047B000114910B50A780178144C62F300010F4AD0
:1047C0000170127862F341010D4A0170127862F3B0
:1047D000820101700B4906220988A0F801100A49DC
:1047E0000988A0F803102178417101460848FEF7B6
:1047F00008FE8020207010BD000000200100002075
:10480000020000200E000020100000200B000020FD
:104810003C05002010B50446002210210848FBF793
:104820006EFE0120FFF728FF2046FEF7CFFA052095
:10483000FFF75CFFBDE81040FF20FEF7C7BA00009D
:104840000008014070B50E4D0E46044600221021AE
:104850002846FBF754FE0120FFF70EFF8034E0B23C
:10486000FEF7B4FA3046FEF7B1FA012210212846CD
:10487000FBF745FEBDE870400520FFF737BF00009D
:1048800000080140010202030405060708090A0B9B
:104890000C0D0E0F101000000000000000000102BF
:1048A00003040607080900000000010203040000D9
:1048B000D048000800000020BC0100006C01000886
:1048C000C8490008BC010020340F00006A460008F7
:1048D000C10316DC0513B91F33081413E52333088D
:1048E000011319242A082B13392033086413352D9A
:1048F00033081E136D311B089D041AA9041AD10434
:104900001AFD041A4D041A7904170403090412014C
:104910003202164083042B571D020102034D031A75
:104920001A03296C82105324F413D9331B08890409
:1049300013293482081A7D1001101AC1141AB50403
:104940001ACD041AA904140902221301011DE03230
:104950000904591403010215092111011401224A05
:104960002E07058103046D091F240A210724294805
:104970006912314B0A06F429CC100A05010902A17B
:10498000010901A1100805091901290315180F25AE
:104990000195037501810295017505810120281794
:1049A00030093109381581257F750895038106C0C6
:1049B000093C05FF090129600E75019502B12275B8
:0849C000069501B101C00000E1
:04000005080000ED02
:00000001FF
